:10030F00C0F9A4B0999282F880908883C6A1868E96
:08031F00060FFFFFFFFFFFFFC7
:10000300E4F508F509F50DF50CF50BF50AF50EC247
:1000130094D291758901758CFC758A67D28C308D69
:10002300FDC28D758CFC758A670509E509700205AB
:1000330008C394E8E50894035003020145E4F50876
:10004300F509E50D2401F50DE4350CF50CE4350B4C
:10005300F50BE4350AF50AE47B0AFAF9F8AF0DAEBD
:100063000CAD0BAC0A1201F1740F2BF58274033A39
:10007300F583E493F50FE47B0AFAF9F8AF0DAE0CC0
:10008300AD0BAC0A1201F1E47B0AFAF9F81201F1A3
:10009300740F2BF58274033AF583E493F510E47B34
:1000A30064FAF9F8AF0DAE0CAD0BAC0A1201F1E432
:1000B3007B0AFAF9F81201F1740F2BF58274033AF3
:1000C300F583E493F511E47BE87A03F9F8AF0DAE19
:1000D3000CAD0BAC0A1201F1E47B0AFAF9F8120138
:1000E300F1740F2BF58274033AF583E493F512E46C
:1000F3007B107A27F9F8AF0DAE0CAD0BAC0A1201E9
:10010300F1E47B0AFAF9F81201F1740F2BF582740A
:10011300033AF583E493F5137BA07A86790178009B
:10012300AF0DAE0CAD0BAC0A1201F1E47B0AFAF988
:10013300F81201F1740F2BF58274033AF583E493FB
:10014300F5147580FFE50E14602114602C146037DC
:1001530014604214604D24056003020021C292C260
:1001630091C290050E850F80020021C292C291D2E6
:1001730090050E851080020021C292D291C2900593
:100183000E851180020021C292D291D290050E8574
:100193001280020021D292C291C290050E85138073
:1001A300020021D292C291D290E4F50E851480020E
:0201B300002129
:0300000002028376
:0C028300787FE4F6D8FD7581140202CAF1
:1001B50075F008758200EF2FFFEE33FECD33CDCC01
:1001C50033CCC58233C5829BED9AEC99E582984084
:1001D5000CF582EE9BFEED9AFDEC99FC0FD5F0D661
:1001E500E4CEFBE4CDFAE4CCF9A88222B800C1B98B
:1001F5000059BA002DEC8BF084CFCECDFCE5F0CBC9
:10020500F97818EF2FFFEE33FEED33FDEC33FCEB01
:1002150033FB10D703994004EB99FB0FD8E5E4F9BC
:10022500FA227818EF2FFFEE33FEED33FDEC33FCA9
:10023500C933C910D7059BE99A4007EC9BFCE99A9D
:10024500F90FD8E0E4C9FAE4CCFB2275F010EF2FE2
:10025500FFEE33FEED33FDCC33CCC833C810D707E2
:100265009BEC9AE899400AED9BFDEC9AFCE899F81D
:0E0275000FD5F0DAE4CDFBE4CCFAE4C8F922B0
:10028F00020003E493A3F8E493A34003F68001F282
:10029F0008DFF48029E493A3F85407240CC8C33370
:1002AF00C4540F4420C8834004F456800146F6DF3F
:1002BF00E4800B010204081020408090031FE47EAD
:1002CF00019360BCA3FF543F30E509541FFEE49334
:1002DF00A360010ECF54C025E060A840B8E493A3FB
:1002EF00FAE493A3F8E493A3C8C582C8CAC583CA26
:1002FF00F0A3C8C582C8CAC583CADFE9DEE780BEDE
:0103270000D5
:00000001FF
